{
  "contractName": "VisitCounter",
  "abi": [
    {
      "inputs": [],
      "payable": false,
      "stateMutability": "nonpayable",
      "type": "constructor",
      "signature": "constructor"
    },
    {
      "constant": false,
      "inputs": [
        {
          "name": "_name",
          "type": "string"
        }
      ],
      "name": "visit",
      "outputs": [],
      "payable": false,
      "stateMutability": "nonpayable",
      "type": "function",
      "signature": "0xbb867d2c"
    },
    {
      "constant": true,
      "inputs": [],
      "name": "viewTotalVisit",
      "outputs": [
        {
          "name": "",
          "type": "uint256"
        }
      ],
      "payable": false,
      "stateMutability": "view",
      "type": "function",
      "signature": "0x4dbeab54"
    },
    {
      "constant": true,
      "inputs": [],
      "name": "viewAllVisitorAddresses",
      "outputs": [
        {
          "name": "",
          "type": "address[]"
        }
      ],
      "payable": false,
      "stateMutability": "view",
      "type": "function",
      "signature": "0xa8124742"
    }
  ],
  "bytecode": "0x608060405234801561001057600080fd5b50600080819055506104ee806100276000396000f3fe608060405260043610610057576000357c0100000000000000000000000000000000000000000000000000000000900463ffffffff1680634dbeab541461005c578063a812474214610087578063bb867d2c146100f3575b600080fd5b34801561006857600080fd5b506100716101bb565b6040518082815260200191505060405180910390f35b34801561009357600080fd5b5061009c6101c4565b6040518080602001828103825283818151815260200191508051906020019060200280838360005b838110156100df5780820151818401526020810190506100c4565b505050509050019250505060405180910390f35b3480156100ff57600080fd5b506101b96004803603602081101561011657600080fd5b810190808035906020019064010000000081111561013357600080fd5b82018360208201111561014557600080fd5b8035906020019184600183028401116401000000008311171561016757600080fd5b91908080601f016020809104026020016040519081016040528093929190818152602001838380828437600081840152601f19601f820116905080830192505050505050509192919290505050610252565b005b60008054905090565b6060600280548060200260200160405190810160405280929190818152602001828054801561024857602002820191906000526020600020905b8160009054906101000a900473ffffffffffffffffffffffffffffffffffffffff1673ffffffffffffffffffffffffffffffffffffffff16815260200190600101908083116101fe575b5050505050905090565b60008081548092919060010191905055506000600160003373ffffffffffffffffffffffffffffffffffffffff1673ffffffffffffffffffffffffffffffffffffffff16815260200190815260200160002060010154111561030557600160003373ffffffffffffffffffffffffffffffffffffffff1673ffffffffffffffffffffffffffffffffffffffff16815260200190815260200160002060010160008154809291906001019190505550610400565b6000815111151561031257fe5b61031a610403565b818160000181905250600181602001818152505080600160003373ffffffffffffffffffffffffffffffffffffffff1673ffffffffffffffffffffffffffffffffffffffff168152602001908152602001600020600082015181600001908051906020019061038a92919061041d565b506020820151816001015590505060023390806001815401808255809150509060018203906000526020600020016000909192909190916101000a81548173ffffffffffffffffffffffffffffffffffffffff021916908373ffffffffffffffffffffffffffffffffffffffff16021790555050505b50565b604080519081016040528060608152602001600081525090565b828054600181600116156101000203166002900490600052602060002090601f016020900481019282601f1061045e57805160ff191683800117855561048c565b8280016001018555821561048c579182015b8281111561048b578251825591602001919060010190610470565b5b509050610499919061049d565b5090565b6104bf91905b808211156104bb5760008160009055506001016104a3565b5090565b9056fea165627a7a72305820461f7a57df713aaa901f3f8f9b9974d960ea3a07fc1eba542d3ea54521ac9c840029",
  "source": "// SPDX-License-Identifier: MIT\r\n\r\npragma solidity >=0.4.21;\r\n\r\ncontract VisitCounter {\r\n\r\n    uint256 private totalVisit;\r\n\r\n    struct Visitor {\r\n        string name;\r\n        uint256 visitCount;\r\n    }\r\n\r\n    mapping (address => Visitor) visitors;\r\n\r\n    address[] visitorAddrs;\r\n\r\n    constructor() public {\r\n        totalVisit = 0;\r\n    }\r\n\r\n    function visit(string memory _name) public {\r\n\r\n        totalVisit++;\r\n\r\n        // If this visitor already exists\r\n        if(visitors[msg.sender].visitCount > 0) {\r\n            visitors[msg.sender].visitCount++;\r\n            return;\r\n        }\r\n\r\n        // _name must not be empty.\r\n        assert(bytes(_name).length > 0);\r\n\r\n        // <memory to storage> spends the least gas.\r\n        // https://ethereum.stackexchange.com/questions/4467/initialising-structs-to-storage-variables\r\n        Visitor memory visitor;\r\n        visitor.name = _name;\r\n        visitor.visitCount = 1;\r\n        visitors[msg.sender] = visitor;\r\n\r\n        // Store all visitor addresses\r\n        // Push is only available in dynamic array\r\n        visitorAddrs.push(msg.sender);\r\n    }\r\n\r\n    function viewTotalVisit() public view returns (uint256) {\r\n        return totalVisit;\r\n    }\r\n\r\n    // To return fixed size array, we have to put the size of the array we declared like this: address[30]\r\n    function viewAllVisitorAddresses() public view returns (address[] memory) {\r\n        return visitorAddrs;\r\n    }\r\n}\r\n",
  "sourcePath": "D:/blockchain/dd/contracts/VisitCounter.sol",
  "compiler": {
    "name": "solc",
    "version": "0.5.0+commit.1d4f565a.Emscripten.clang"
  },
  "schemaVersion": "3.0.2",
  "updatedAt": "2022-05-03T18:30:32.630Z",
  "devdoc": {
    "methods": {}
  },
  "userdoc": {
    "methods": {}
  }
}