{
  "contractName": "VisitCounter",
  "abi": [
    {
      "inputs": [],
      "payable": false,
      "stateMutability": "nonpayable",
      "type": "constructor",
      "signature": "constructor"
    },
    {
      "constant": false,
      "inputs": [
        {
          "name": "_name",
          "type": "string"
        }
      ],
      "name": "visit",
      "outputs": [],
      "payable": false,
      "stateMutability": "nonpayable",
      "type": "function",
      "signature": "0xbb867d2c"
    },
    {
      "constant": true,
      "inputs": [],
      "name": "viewTotalVisit",
      "outputs": [
        {
          "name": "",
          "type": "uint256"
        }
      ],
      "payable": false,
      "stateMutability": "view",
      "type": "function",
      "signature": "0x4dbeab54"
    },
    {
      "constant": true,
      "inputs": [],
      "name": "viewAllVisitorAddresses",
      "outputs": [
        {
          "name": "",
          "type": "address[]"
        }
      ],
      "payable": false,
      "stateMutability": "view",
      "type": "function",
      "signature": "0xa8124742"
    }
  ],
  "bytecode": "0x608060405234801561001057600080fd5b50600080819055506104e8806100276000396000f3fe608060405260043610610051576000357c0100000000000000000000000000000000000000000000000000000000900480634dbeab5414610056578063a812474214610081578063bb867d2c146100ed575b600080fd5b34801561006257600080fd5b5061006b6101b5565b6040518082815260200191505060405180910390f35b34801561008d57600080fd5b506100966101be565b6040518080602001828103825283818151815260200191508051906020019060200280838360005b838110156100d95780820151818401526020810190506100be565b505050509050019250505060405180910390f35b3480156100f957600080fd5b506101b36004803603602081101561011057600080fd5b810190808035906020019064010000000081111561012d57600080fd5b82018360208201111561013f57600080fd5b8035906020019184600183028401116401000000008311171561016157600080fd5b91908080601f016020809104026020016040519081016040528093929190818152602001838380828437600081840152601f19601f82011690508083019250505050505050919291929050505061024c565b005b60008054905090565b6060600280548060200260200160405190810160405280929190818152602001828054801561024257602002820191906000526020600020905b8160009054906101000a900473ffffffffffffffffffffffffffffffffffffffff1673ffffffffffffffffffffffffffffffffffffffff16815260200190600101908083116101f8575b5050505050905090565b60008081548092919060010191905055506000600160003373ffffffffffffffffffffffffffffffffffffffff1673ffffffffffffffffffffffffffffffffffffffff1681526020019081526020016000206001015411156102ff57600160003373ffffffffffffffffffffffffffffffffffffffff1673ffffffffffffffffffffffffffffffffffffffff168152602001908152602001600020600101600081548092919060010191905055506103fa565b6000815111151561030c57fe5b6103146103fd565b818160000181905250600181602001818152505080600160003373ffffffffffffffffffffffffffffffffffffffff1673ffffffffffffffffffffffffffffffffffffffff1681526020019081526020016000206000820151816000019080519060200190610384929190610417565b506020820151816001015590505060023390806001815401808255809150509060018203906000526020600020016000909192909190916101000a81548173ffffffffffffffffffffffffffffffffffffffff021916908373ffffffffffffffffffffffffffffffffffffffff16021790555050505b50565b604080519081016040528060608152602001600081525090565b828054600181600116156101000203166002900490600052602060002090601f016020900481019282601f1061045857805160ff1916838001178555610486565b82800160010185558215610486579182015b8281111561048557825182559160200191906001019061046a565b5b5090506104939190610497565b5090565b6104b991905b808211156104b557600081600090555060010161049d565b5090565b9056fea165627a7a7230582012ec02ff2062a9e5f7ce691480afcea7f419de7ccae6bb716e6af432a6d9da9b0029",
  "source": "// SPDX-License-Identifier: MIT\r\npragma solidity >=0.4.22 <0.9.0;\r\n\r\ncontract VisitCounter {\r\n\r\n    uint256 private totalVisit;\r\n\r\n    struct Visitor {\r\n        string name;\r\n        uint256 visitCount;\r\n    }\r\n\r\n    mapping (address => Visitor) visitors;\r\n\r\n    address[] visitorAddrs;\r\n\r\n    constructor() public {\r\n        totalVisit = 0;\r\n    }\r\n\r\n    function visit(string memory _name) public {\r\n\r\n        totalVisit++;\r\n\r\n        // If this visitor already exists\r\n        if(visitors[msg.sender].visitCount > 0) {\r\n            visitors[msg.sender].visitCount++;\r\n            return;\r\n        }\r\n\r\n        // _name must not be empty.\r\n        assert(bytes(_name).length > 0);\r\n\r\n        // <memory to storage> spends the least gas.\r\n        // https://ethereum.stackexchange.com/questions/4467/initialising-structs-to-storage-variables\r\n        Visitor memory visitor;\r\n        visitor.name = _name;\r\n        visitor.visitCount = 1;\r\n        visitors[msg.sender] = visitor;\r\n\r\n        // Store all visitor addresses\r\n        // Push is only available in dynamic array\r\n        visitorAddrs.push(msg.sender);\r\n    }\r\n\r\n    function viewTotalVisit() public view returns (uint256) {\r\n        return totalVisit;\r\n    }\r\n\r\n    // To return fixed size array, we have to put the size of the array we declared like this: address[30]\r\n    function viewAllVisitorAddresses() public view returns (address[] memory) {\r\n        return visitorAddrs;\r\n    }\r\n}",
  "sourcePath": "D:/praDapp/contracts/VisitCounter.sol",
  "compiler": {
    "name": "solc",
    "version": "0.5.1+commit.c8a2cb62.Emscripten.clang"
  },
  "schemaVersion": "3.0.2",
  "updatedAt": "2022-04-18T16:32:41.019Z",
  "devdoc": {
    "methods": {}
  },
  "userdoc": {
    "methods": {}
  }
}